:100000006AEF00F00C500E02F3CF01F0F4CF00F0D5
:100010000F02F35000260D500E02F3500020026E26
:10002000C7EF00F0EA6A090EE96EEF500EE0050E28
:10003000016E006A002EFED7012EFBD72E0E006E39
:10004000002EFED700D0EF2EF2D71200086A08501B
:1000500004081CE3926A8968936A0F0E8A6E969070
:10006000969296949696070E8D6E960E096EDADF2E
:10007000926A896A936A8A6A9690969296949696FC
:100080008D6A960E096ECEDF082AE1D7E8EF00F000
:10009000016A026A006A036A0F5002E10E5018E01A
:1000A000100E106ED8900C360D36003603360F50F9
:1000B000035C02E10E50005C07E30E50005ED8A026
:1000C00003060F50035ED88001360236102EEAD7A1
:1000D000E6EF00F0F86AD09EC150C00B0F09C16E68
:1000E000070EB46E600ED36E400E9B6ED350000EA2
:1000F000926EF00E936EFF0E946E956E96909692A1
:1001000096949696056A936881CF06F00650100A79
:1001100007E0300A0DE0600A28E0C00A3BE058D052
:1001200094688250086E956883500824056E50D0FC
:1001300095688350096A086E94688250036A016E5C
:100140000350095C0AE303E10850015C06E295688C
:1001500083CF07F007C005F007D094688250086E7F
:1001600095688350085C056E33D094688250096AA4
:10017000086E95688350036A0A6E03C00BF009C0CD
:100180000DF008C00CF003C00FF00E6E3BD701C09D
:1001900005F01ED095688350096A086E085204E184
:1001A000095202E153D714D094688250096A086E4C
:1001B00095688350036A0A6E03C00BF009C00DF006
:1001C00008C00CF003C00FF00E6E62D701C005F03E
:1001D00005503F0B926A896E0550C00B936A8A6E78
:1001E000086A969096929694969608C08DFF8BD743
:0201F00003000A
:020000040030CA
:0E0000000002181E000581000FC00FE00F4027
:00000001FF
;PIC18F4620
;CRC=2762  CREATED="06-abr.-18 22:31"
